:040000008DEF00F090
:1000080000C015F0F2A40DD0160E196E000E1A6E6F
:100018000FD816C019F022D81750D7261850D62650
:08002800F29415C000F0110074
:08003000F28ED08EF28A12005C
:1000380019C0E9FF1AC0EAFF19C0E1FF1AC0E2FFC0
:10004800E62A19C0E9FF1AC0EAFF0A0EEE5C05E3CA
:0C00580019C0E1FF1AC0E2FFE66A1200C6
:1000640020D03F0E8C6E3CD0060E8C6E39D05B0EC9
:100074008C6E36D04F0E8C6E33D0660E8C6E30D0B4
:100084006D0E8C6E2DD07D0E8C6E2AD0070E8C6E6C
:1000940027D07F0E8C6E24D06F0E8C6E21D08C6A8C
:1000A4001FD01950000ADDE01950010ADDE0195093
:1000B400020ADDE01950030ADDE01950040ADDE00C
:1000C4001950050ADDE01950060ADDE01950070A47
:1000D400DDE01950080ADDE01950090ADDE0DFD738
:0200E400120008
:1000E600D58ED59CD59AD598D596D584D592D590CA
:0A00F60017C0D7FF18C0D6FF120094
:100100000900F5CFE6FF0006FBE10106F9E1120068
:0A0110000F0EC112956A836A1200F7
:10011A00166A0B0E176EDC0E186EF5DFDFDF83DF53
:04012A00FFD7FFD725
:020000040030CA
:0E000000000C1F1EFF8381FF0FC00FE00F409A
:00000001FF
