:04000000A8EF00F075
:1000080000C015F0F2A40ED016C019F027D8160EAD
:10001800196E000E1A6E63D818C0D7FF17C0D6FF26
:10002800F29411D0F2A207D0D58E0B0E186EDC0E0A
:10003800176EF29208D0F0A006D0D58EC20E186EB8
:0C004800F70E176EF09015C000F01100CC
:10005400F28EF28AF288F08CF086F18CF18A12002A
:1000640020D03F0E8C6E3CD0060E8C6E39D05B0EC9
:100074008C6E36D04F0E8C6E33D0660E8C6E30D0B4
:100084006D0E8C6E2DD07D0E8C6E2AD0070E8C6E6C
:1000940027D07F0E8C6E24D06F0E8C6E21D08C6A8C
:1000A4001FD01950000ADDE01950010ADDE0195093
:1000B400020ADDE01950030ADDE01950040ADDE00C
:1000C4001950050ADDE01950060ADDE01950070A47
:1000D400DDE01950080ADDE01950090ADDE0DFD738
:0200E400120008
:1000E60019C0E9FF1AC0EAFF19C0E1FF1AC0E2FF12
:1000F600E62A19C0E9FF1AC0EAFF0A0EEE5C05E31C
:0C01060019C0E1FF1AC0E2FFE66A120017
:10011200D59ED59CD59AD598D596D584D592D5908D
:0A01220018C0D7FF17C0D6FF120067
:10012C000900F5CFE6FF0006FBE10106F9E112003C
:10013C000F0EC112956A836A926A0F0E806EFF0EC3
:04014C00936E12009C
:10015000166A176AFF0E186EF1DFDBDF7BDFFFD751
:02016000FFD7C7
:020000040030CA
:0E000000000C1F1EFF8381FF0FC00FE00F409A
:00000001FF
