:04000000A3EF00F07A
:1000080000C015F0F2A40ED016C019F025D8160EAF
:10001800196E000E1A6E61D81750D7261850D626BA
:10002800F29411D0F2A207D0D58E0B0E176EDC0E0B
:10003800186EF29208D0F0A006D0D58EC20E176EB8
:0C004800F70E186EF09015C000F01100CB
:0C005400F28EF28AF288F08CF086120026
:1000600020D03F0E8C6E3CD0860E8C6E39D05B0E4D
:100070008C6E36D0CF0E8C6E33D0660E8C6E30D038
:10008000ED0E8C6E2DD07D0E8C6E2AD0870E8C6E70
:1000900027D07F0E8C6E24D0EF0E8C6E21D08C6A10
:1000A0001FD01950000ADDE01950010ADDE0195097
:1000B000020ADDE01950030ADDE01950040ADDE010
:1000C0001950050ADDE01950060ADDE01950070A4B
:1000D000DDE01950080ADDE01950090ADDE0DFD73C
:0200E00012000C
:1000E20019C0E9FF1AC0EAFF19C0E1FF1AC0E2FF16
:1000F200E62A19C0E9FF1AC0EAFF0A0EEE5C05E320
:0C01020019C0E1FF1AC0E2FFE66A12001B
:10010E00D59ED59CD59AD598D596D584D592D59091
:0A011E0017C0D7FF18C0D6FF12006B
:100128000900F5CFE6FF0006FBE10106F9E1120040
:0E0138000F0EC112956A836AFF0E936E1200BD
:10014600166AFF0E176E186AF4DFDEDF80DFFFD750
:02015600FFD7D1
:020000040030CA
:0E000000000C1F1EFF8381FF0FC00FE00F409A
:00000001FF
